{
  "transactions": [
    {
      "hash": "0xee03650b9a5faf61722173dbdab235b33d8e130e13566fdf00f18edd15a50d2d",
      "transactionType": "CALL",
      "contractName": null,
      "contractAddress": "0x2ec5cfde6f37029aa8cc018ed71cf4ef67c704ae",
      "function": "mintAddressTagSBT(address,uint256)",
      "arguments": [
        "0x21C8e614CD5c37765411066D2ec09912020c846F",
        "2"
      ],
      "transaction": {
        "from": "0xbebaf2a9ad714feb9dd151d81dd6d61ae0535646",
        "to": "0x2ec5cfde6f37029aa8cc018ed71cf4ef67c704ae",
        "gas": "0x1ba2e",
        "value": "0x0",
        "input": "0x57b0990900000000000000000000000021c8e614cd5c37765411066d2ec09912020c846f0000000000000000000000000000000000000000000000000000000000000002",
        "nonce": "0x3",
        "chainId": "0x5618"
      },
      "additionalContracts": [],
      "isFixedGasLimit": false
    }
  ],
  "receipts": [
    {
      "status": "0x1",
      "cumulativeGasUsed": "0x3a471",
      "logs": [
        {
          "address": "0x2ec5cfde6f37029aa8cc018ed71cf4ef67c704ae",
          "topics": [
            "0xc3d58168c5ae7397731d063d5bbf3d657854427343f4c083240f7aacaa2d0f62",
            "0x000000000000000000000000bebaf2a9ad714feb9dd151d81dd6d61ae0535646",
            "0x0000000000000000000000000000000000000000000000000000000000000000",
            "0x00000000000000000000000021c8e614cd5c37765411066d2ec09912020c846f"
          ],
          "data": "0x00000000000000000000000000000000000000000000000000000000000000020000000000000000000000000000000000000000000000000000000000000001",
          "blockHash": "0xf0387606d723830a2410ce7d602694437584efcb882cc82105d7083b400eb158",
          "blockNumber": "0x1b6514",
          "transactionHash": "0xee03650b9a5faf61722173dbdab235b33d8e130e13566fdf00f18edd15a50d2d",
          "transactionIndex": "0x1",
          "logIndex": "0x2",
          "removed": false
        }
      ],
      "logsBloom": "0x00000000000000000000000000000000000000000000000000000000000000200000000200000000020000000000000001000000000000000000000000402000000000000000000000200000000000000000000000000000000000080000000000000000020000000000000040000800000000000000000000000000000000000000000000000000000000000000000000000000000000000000000000000000000000000008000000000000000000000000000000000000000000000000000000000000000000000000000000000000000000000008000000000000000020000000000000000000000000000000000000000000000000000000080000000000",
      "type": "0x0",
      "transactionHash": "0xee03650b9a5faf61722173dbdab235b33d8e130e13566fdf00f18edd15a50d2d",
      "transactionIndex": "0x1",
      "blockHash": "0xf0387606d723830a2410ce7d602694437584efcb882cc82105d7083b400eb158",
      "blockNumber": "0x1b6514",
      "gasUsed": "0x140b5",
      "effectiveGasPrice": "0x0",
      "from": "0xbebaf2a9ad714feb9dd151d81dd6d61ae0535646",
      "to": "0x2ec5cfde6f37029aa8cc018ed71cf4ef67c704ae",
      "contractAddress": null
    }
  ],
  "libraries": [],
  "pending": [],
  "returns": {},
  "timestamp": 1726949616,
  "chain": 22040,
  "commit": "e9591c0"
}