{
  "transactions": [
    {
      "hash": "0x5aa16787952f32d4ee369927b2e06fffd4f2e255a501b5f284595335a22b2faf",
      "transactionType": "CALL",
      "contractName": null,
      "contractAddress": "0x2ec5cfde6f37029aa8cc018ed71cf4ef67c704ae",
      "function": "mintAddressTagSBT(address,uint256)",
      "arguments": [
        "0x21C8e614CD5c37765411066D2ec09912020c846F",
        "3"
      ],
      "transaction": {
        "from": "0xbebaf2a9ad714feb9dd151d81dd6d61ae0535646",
        "to": "0x2ec5cfde6f37029aa8cc018ed71cf4ef67c704ae",
        "gas": "0x1ba2e",
        "value": "0x0",
        "input": "0x57b0990900000000000000000000000021c8e614cd5c37765411066d2ec09912020c846f0000000000000000000000000000000000000000000000000000000000000003",
        "nonce": "0x4",
        "chainId": "0x5618"
      },
      "additionalContracts": [],
      "isFixedGasLimit": false
    }
  ],
  "receipts": [
    {
      "status": "0x1",
      "cumulativeGasUsed": "0x140b5",
      "logs": [
        {
          "address": "0x2ec5cfde6f37029aa8cc018ed71cf4ef67c704ae",
          "topics": [
            "0xc3d58168c5ae7397731d063d5bbf3d657854427343f4c083240f7aacaa2d0f62",
            "0x000000000000000000000000bebaf2a9ad714feb9dd151d81dd6d61ae0535646",
            "0x0000000000000000000000000000000000000000000000000000000000000000",
            "0x00000000000000000000000021c8e614cd5c37765411066d2ec09912020c846f"
          ],
          "data": "0x00000000000000000000000000000000000000000000000000000000000000030000000000000000000000000000000000000000000000000000000000000001",
          "blockHash": "0xfbae2667b9e4ec51b321b03a19b3c6dd597727dc57943e10de648f22a3cbf096",
          "blockNumber": "0x1b6533",
          "transactionHash": "0x5aa16787952f32d4ee369927b2e06fffd4f2e255a501b5f284595335a22b2faf",
          "transactionIndex": "0x0",
          "logIndex": "0x0",
          "removed": false
        }
      ],
      "logsBloom": "0x00000000000000000000000000000000000000000000000000000000000000200000000200000000020000000000000001000000000000000000000000402000000000000000000000200000000000000000000000000000000000080000000000000000020000000000000040000800000000000000000000000000000000000000000000000000000000000000000000000000000000000000000000000000000000000008000000000000000000000000000000000000000000000000000000000000000000000000000000000000000000000008000000000000000020000000000000000000000000000000000000000000000000000000080000000000",
      "type": "0x0",
      "transactionHash": "0x5aa16787952f32d4ee369927b2e06fffd4f2e255a501b5f284595335a22b2faf",
      "transactionIndex": "0x0",
      "blockHash": "0xfbae2667b9e4ec51b321b03a19b3c6dd597727dc57943e10de648f22a3cbf096",
      "blockNumber": "0x1b6533",
      "gasUsed": "0x140b5",
      "effectiveGasPrice": "0x0",
      "from": "0xbebaf2a9ad714feb9dd151d81dd6d61ae0535646",
      "to": "0x2ec5cfde6f37029aa8cc018ed71cf4ef67c704ae",
      "contractAddress": null
    }
  ],
  "libraries": [],
  "pending": [],
  "returns": {},
  "timestamp": 1726949802,
  "chain": 22040,
  "commit": "e9591c0"
}