{
  "transactions": [
    {
      "hash": "0xd97aff17db17fc11f23341565f014b58baed845546d52a9ba65499bf0c35ddb6",
      "transactionType": "CALL",
      "contractName": null,
      "contractAddress": "0x2ec5cfde6f37029aa8cc018ed71cf4ef67c704ae",
      "function": "mintAddressTagSBT(address,uint256)",
      "arguments": [
        "0x39Ef50bd29Ae125FE10C6a909E42e1C6a94Dde29",
        "3"
      ],
      "transaction": {
        "from": "0xbebaf2a9ad714feb9dd151d81dd6d61ae0535646",
        "to": "0x2ec5cfde6f37029aa8cc018ed71cf4ef67c704ae",
        "gas": "0x1ba2e",
        "value": "0x0",
        "input": "0x57b0990900000000000000000000000039ef50bd29ae125fe10c6a909e42e1c6a94dde290000000000000000000000000000000000000000000000000000000000000003",
        "nonce": "0xd",
        "chainId": "0x5618"
      },
      "additionalContracts": [],
      "isFixedGasLimit": false
    }
  ],
  "receipts": [
    {
      "status": "0x1",
      "cumulativeGasUsed": "0x140b5",
      "logs": [
        {
          "address": "0x2ec5cfde6f37029aa8cc018ed71cf4ef67c704ae",
          "topics": [
            "0xc3d58168c5ae7397731d063d5bbf3d657854427343f4c083240f7aacaa2d0f62",
            "0x000000000000000000000000bebaf2a9ad714feb9dd151d81dd6d61ae0535646",
            "0x0000000000000000000000000000000000000000000000000000000000000000",
            "0x00000000000000000000000039ef50bd29ae125fe10c6a909e42e1c6a94dde29"
          ],
          "data": "0x00000000000000000000000000000000000000000000000000000000000000030000000000000000000000000000000000000000000000000000000000000001",
          "blockHash": "0x5f85aa23c6e88221c9f219cb7897cb10e848550df31f861228a0a9c7fc155455",
          "blockNumber": "0x1b6c0e",
          "transactionHash": "0xd97aff17db17fc11f23341565f014b58baed845546d52a9ba65499bf0c35ddb6",
          "transactionIndex": "0x0",
          "logIndex": "0x0",
          "removed": false
        }
      ],
      "logsBloom": "0x00000000000000000000000000000000000000000000000000000000000000000000000000000000000000000000000001000000000000000000000000402000000000000000000000200000000080000000000000000000000000080000000000000000020000000000000040000800000000000000000000000000000000000000000000000000000000000000000000000000000000000000000000000000000000000008000000000000000000000000000000000000000000000000000000000000000000000000000000000000000000000008000000000000000020000000000000000000000000000000000000040000000000000000080000000000",
      "type": "0x0",
      "transactionHash": "0xd97aff17db17fc11f23341565f014b58baed845546d52a9ba65499bf0c35ddb6",
      "transactionIndex": "0x0",
      "blockHash": "0x5f85aa23c6e88221c9f219cb7897cb10e848550df31f861228a0a9c7fc155455",
      "blockNumber": "0x1b6c0e",
      "gasUsed": "0x140b5",
      "effectiveGasPrice": "0x0",
      "from": "0xbebaf2a9ad714feb9dd151d81dd6d61ae0535646",
      "to": "0x2ec5cfde6f37029aa8cc018ed71cf4ef67c704ae",
      "contractAddress": null
    }
  ],
  "libraries": [],
  "pending": [],
  "returns": {},
  "timestamp": 1726961029,
  "chain": 22040,
  "commit": "508c378"
}