{
  "transactions": [
    {
      "hash": "0x998a96a3c375d8c8def7625ff68f55ed1714bfeff7e496ae1de71cb847581bf5",
      "transactionType": "CALL",
      "contractName": null,
      "contractAddress": "0x2ec5cfde6f37029aa8cc018ed71cf4ef67c704ae",
      "function": "mintAddressTagSBT(address,uint256)",
      "arguments": [
        "0xAE2B5589a42e644F78b7AAc2A8D5566b31c05084",
        "0"
      ],
      "transaction": {
        "from": "0xbebaf2a9ad714feb9dd151d81dd6d61ae0535646",
        "to": "0x2ec5cfde6f37029aa8cc018ed71cf4ef67c704ae",
        "gas": "0x1a18c",
        "value": "0x0",
        "input": "0x57b09909000000000000000000000000ae2b5589a42e644f78b7aac2a8d5566b31c050840000000000000000000000000000000000000000000000000000000000000000",
        "nonce": "0x5",
        "chainId": "0x5618"
      },
      "additionalContracts": [],
      "isFixedGasLimit": false
    }
  ],
  "receipts": [
    {
      "status": "0x1",
      "cumulativeGasUsed": "0x14075",
      "logs": [
        {
          "address": "0x2ec5cfde6f37029aa8cc018ed71cf4ef67c704ae",
          "topics": [
            "0xc3d58168c5ae7397731d063d5bbf3d657854427343f4c083240f7aacaa2d0f62",
            "0x000000000000000000000000bebaf2a9ad714feb9dd151d81dd6d61ae0535646",
            "0x0000000000000000000000000000000000000000000000000000000000000000",
            "0x000000000000000000000000ae2b5589a42e644f78b7aac2a8d5566b31c05084"
          ],
          "data": "0x00000000000000000000000000000000000000000000000000000000000000000000000000000000000000000000000000000000000000000000000000000001",
          "blockHash": "0x8a5af7a03abac8c2915c2f85f60ae588643b3129a2c00ba70d609f3270af932b",
          "blockNumber": "0x1b654f",
          "transactionHash": "0x998a96a3c375d8c8def7625ff68f55ed1714bfeff7e496ae1de71cb847581bf5",
          "transactionIndex": "0x0",
          "logIndex": "0x0",
          "removed": false
        }
      ],
      "logsBloom": "0x00000000000000000000000000000000000000000000000000000000000000000000000000000000000000000000000001000000000000000000000000402000000000000000000000200000000000000000000000000000000000080000000000000000020000000000000140000800000000000000000000000000000000000000000000000000000000000000000000000000000000000000000100000000000000000008000000000000000000000000000000000000000000000000000000000000000000000000000000000000000000000008000000000000000020000000000000000000000000000000000000000000000000000000080000000000",
      "type": "0x0",
      "transactionHash": "0x998a96a3c375d8c8def7625ff68f55ed1714bfeff7e496ae1de71cb847581bf5",
      "transactionIndex": "0x0",
      "blockHash": "0x8a5af7a03abac8c2915c2f85f60ae588643b3129a2c00ba70d609f3270af932b",
      "blockNumber": "0x1b654f",
      "gasUsed": "0x14075",
      "effectiveGasPrice": "0x0",
      "from": "0xbebaf2a9ad714feb9dd151d81dd6d61ae0535646",
      "to": "0x2ec5cfde6f37029aa8cc018ed71cf4ef67c704ae",
      "contractAddress": null
    }
  ],
  "libraries": [],
  "pending": [],
  "returns": {},
  "timestamp": 1726949988,
  "chain": 22040,
  "commit": "e9591c0"
}