{
  "transactions": [
    {
      "hash": "0x3d336a2050a98f84b40b11b9343908ae4612559385eb6e269a6ee9f63e307ca6",
      "transactionType": "CALL",
      "contractName": null,
      "contractAddress": "0x2ec5cfde6f37029aa8cc018ed71cf4ef67c704ae",
      "function": "mintAddressTagSBT(address,uint256)",
      "arguments": [
        "0x8ed62Ec2871f15b0d5e8E361E02a76d889a5cBf1",
        "3"
      ],
      "transaction": {
        "from": "0xbebaf2a9ad714feb9dd151d81dd6d61ae0535646",
        "to": "0x2ec5cfde6f37029aa8cc018ed71cf4ef67c704ae",
        "gas": "0x1ba2e",
        "value": "0x0",
        "input": "0x57b099090000000000000000000000008ed62ec2871f15b0d5e8e361e02a76d889a5cbf10000000000000000000000000000000000000000000000000000000000000003",
        "nonce": "0x9",
        "chainId": "0x5618"
      },
      "additionalContracts": [],
      "isFixedGasLimit": false
    }
  ],
  "receipts": [
    {
      "status": "0x1",
      "cumulativeGasUsed": "0x140b5",
      "logs": [
        {
          "address": "0x2ec5cfde6f37029aa8cc018ed71cf4ef67c704ae",
          "topics": [
            "0xc3d58168c5ae7397731d063d5bbf3d657854427343f4c083240f7aacaa2d0f62",
            "0x000000000000000000000000bebaf2a9ad714feb9dd151d81dd6d61ae0535646",
            "0x0000000000000000000000000000000000000000000000000000000000000000",
            "0x0000000000000000000000008ed62ec2871f15b0d5e8e361e02a76d889a5cbf1"
          ],
          "data": "0x00000000000000000000000000000000000000000000000000000000000000030000000000000000000000000000000000000000000000000000000000000001",
          "blockHash": "0xb0514fcf3438d13ddefd7f8925d1f707db428a9a8055783e2c59d24a9fc0ffd0",
          "blockNumber": "0x1b66e1",
          "transactionHash": "0x3d336a2050a98f84b40b11b9343908ae4612559385eb6e269a6ee9f63e307ca6",
          "transactionIndex": "0x0",
          "logIndex": "0x0",
          "removed": false
        }
      ],
      "logsBloom": "0x00000000000000000000000000000000000000000000000000000000000000000000000000000000000000000000000001000000000000000000000000402000000000000000000000200000000000000000000000000000000000080000000000000000020000000000000040000800000000000000000000000000000000000000000000000000000000000000000000000000000000000000000000000000000000000008000000000000000000000000000000000000000000000000000000000000000000000000000000000000000000000008000000000000000020000000000000000000000000000000800000000002000001000000080000000000",
      "type": "0x0",
      "transactionHash": "0x3d336a2050a98f84b40b11b9343908ae4612559385eb6e269a6ee9f63e307ca6",
      "transactionIndex": "0x0",
      "blockHash": "0xb0514fcf3438d13ddefd7f8925d1f707db428a9a8055783e2c59d24a9fc0ffd0",
      "blockNumber": "0x1b66e1",
      "gasUsed": "0x140b5",
      "effectiveGasPrice": "0x0",
      "from": "0xbebaf2a9ad714feb9dd151d81dd6d61ae0535646",
      "to": "0x2ec5cfde6f37029aa8cc018ed71cf4ef67c704ae",
      "contractAddress": null
    }
  ],
  "libraries": [],
  "pending": [],
  "returns": {},
  "timestamp": 1726952545,
  "chain": 22040,
  "commit": "1a0de61"
}