{
  "transactions": [
    {
      "hash": "0x42c120671c09afd8bbf66e1ff49b272bd8febf259bf2268a9b08e3f3bbc7aaa3",
      "transactionType": "CALL",
      "contractName": null,
      "contractAddress": "0x2ec5cfde6f37029aa8cc018ed71cf4ef67c704ae",
      "function": "mintAddressTagSBT(address,uint256)",
      "arguments": [
        "0xAE2B5589a42e644F78b7AAc2A8D5566b31c05084",
        "1"
      ],
      "transaction": {
        "from": "0xbebaf2a9ad714feb9dd151d81dd6d61ae0535646",
        "to": "0x2ec5cfde6f37029aa8cc018ed71cf4ef67c704ae",
        "gas": "0x1ba2e",
        "value": "0x0",
        "input": "0x57b09909000000000000000000000000ae2b5589a42e644f78b7aac2a8d5566b31c050840000000000000000000000000000000000000000000000000000000000000001",
        "nonce": "0x6",
        "chainId": "0x5618"
      },
      "additionalContracts": [],
      "isFixedGasLimit": false
    }
  ],
  "receipts": [
    {
      "status": "0x1",
      "cumulativeGasUsed": "0x140b5",
      "logs": [
        {
          "address": "0x2ec5cfde6f37029aa8cc018ed71cf4ef67c704ae",
          "topics": [
            "0xc3d58168c5ae7397731d063d5bbf3d657854427343f4c083240f7aacaa2d0f62",
            "0x000000000000000000000000bebaf2a9ad714feb9dd151d81dd6d61ae0535646",
            "0x0000000000000000000000000000000000000000000000000000000000000000",
            "0x000000000000000000000000ae2b5589a42e644f78b7aac2a8d5566b31c05084"
          ],
          "data": "0x00000000000000000000000000000000000000000000000000000000000000010000000000000000000000000000000000000000000000000000000000000001",
          "blockHash": "0xe4831e6f17664b5662ed4c73edb63e3ebee81fcbc258b6d0b3a68acbf70396ca",
          "blockNumber": "0x1b6576",
          "transactionHash": "0x42c120671c09afd8bbf66e1ff49b272bd8febf259bf2268a9b08e3f3bbc7aaa3",
          "transactionIndex": "0x0",
          "logIndex": "0x0",
          "removed": false
        }
      ],
      "logsBloom": "0x00000000000000000000000000000000000000000000000000000000000000000000000000000000000000000000000001000000000000000000000000402000000000000000000000200000000000000000000000000000000000080000000000000000020000000000000140000800000000000000000000000000000000000000000000000000000000000000000000000000000000000000000100000000000000000008000000000000000000000000000000000000000000000000000000000000000000000000000000000000000000000008000000000000000020000000000000000000000000000000000000000000000000000000080000000000",
      "type": "0x0",
      "transactionHash": "0x42c120671c09afd8bbf66e1ff49b272bd8febf259bf2268a9b08e3f3bbc7aaa3",
      "transactionIndex": "0x0",
      "blockHash": "0xe4831e6f17664b5662ed4c73edb63e3ebee81fcbc258b6d0b3a68acbf70396ca",
      "blockNumber": "0x1b6576",
      "gasUsed": "0x140b5",
      "effectiveGasPrice": "0x0",
      "from": "0xbebaf2a9ad714feb9dd151d81dd6d61ae0535646",
      "to": "0x2ec5cfde6f37029aa8cc018ed71cf4ef67c704ae",
      "contractAddress": null
    }
  ],
  "libraries": [],
  "pending": [],
  "returns": {},
  "timestamp": 1726950228,
  "chain": 22040,
  "commit": "e9591c0"
}